:020000040800F2
:1000000000000220215C0008715B00087F5B000893
:10001000855B00088B5B0008915B00080000000016
:10002000000000000000000000000000975B0008D6
:10003000A55B000800000000B35B0008C15B00087E
:10004000715C0008715C0008715C0008715C00085C
:10005000715C0008715C0008715C0008715C00084C
:10006000715C0008715C0008715C0008715C00083C
:10007000715C0008715C0008715C0008715C00082C
:10008000715C0008715C0008715C0008715C00081C
:10009000715C0008715C0008715C0008715C00080C
:1000A000715C0008715C0008715C0008715C0008FC
:1000B000715C0008CD5B0008715C0008715C000891
:1000C000715C0008715C0008715C0008715C0008DC
:1000D000715C0008715C0008E15B0008715C00085D
:1000E000715C0008715C0008715C0008715C0008BC
:1000F000715C0008715C0008715C0008715C0008AC
:10010000715C0008715C0008715C0008715C00089B
:10011000715C0008715C0008715C0008715C00088B
:10012000715C0008715C0008715C0008715C00087B
:10013000715C0008715C0008715C0008715C00086B
:10014000715C0008715C0008715C0008715C00085B
:10015000715C0008715C0008715C0008715C00084B
:10016000715C0008715C0008715C0008715C00083B
:10017000715C0008715C0008715C00080000000000
:08018000715C0008715C0008CD
:1001880010B5054C237833B9044B13B10448AFF3C9
:1001980000800123237010BD7800002000000000BB
:1001A800DC6E000808B5034B1BB103490348AFF3E5
:1001B800008008BD000000007C000020DC6E000804
:1001C80081F0004102E000BF83F0004330B54FEA00
:1001D80041044FEA430594EA050F08BF90EA020F6D
:1001E8001FBF54EA000C55EA020C7FEA645C7FEA00
:1001F800655C00F0E2804FEA5454D4EB5555B8BF23
:100208006D420CDD2C4480EA020281EA030382EA93
:10021800000083EA010180EA020281EA0303362D25
:1002280088BF30BD11F0004F4FEA01314FF4801CF8
:100238004CEA113102D0404261EB410113F0004F0A
:100248004FEA03334CEA133302D0524263EB4303C1
:1002580094EA050F00F0A780A4F10104D5F1200E5F
:100268000DDB02FA0EFC22FA05F2801841F10001BA
:1002780003FA0EF2801843FA05F359410EE0A5F18E
:1002880020050EF1200E012A03FA0EFC28BF4CF0BF
:10029800020C43FA05F3C01851EBE37101F0004575
:1002A80007D54FF0000EDCF1000C7EEB00006EEB82
:1002B8000101B1F5801F1BD3B1F5001F0CD349080C
:1002C8005FEA30004FEA3C0C04F101044FEA445263
:1002D80012F5800F80F09A80BCF1004F08BF5FEAEA
:1002E800500C50F1000041EB045141EA050130BDCA
:1002F8005FEA4C0C404141EB010111F4801FA4F16D
:100308000104E9D191F0000F04BF01460020B1FAC1
:1003180081F308BF2033A3F10B03B3F120020CDAF9
:100328000C3208DD02F1140CC2F10C0201FA0CF0D7
:1003380021FA02F10CE002F11402D8BFC2F1200C3C
:1003480001FA02F120FA0CFCDCBF41EA0C019040F2
:10035800E41AA2BF01EB0451294330BD6FEA04043B
:100368001F3C1CDA0C340EDC04F11404C4F1200226
:1003780020FA04F001FA02F340EA030021FA04F338
:1003880045EA030130BDC4F10C04C4F1200220FA8F
:1003980002F001FA04F340EA0300294630BD21FACD
:1003A80004F0294630BD94F0000F83F4801306BF93
:1003B80081F480110134013D4EE77FEA645C18BF87
:1003C8007FEA655C29D094EA050F08BF90EA020F1E
:1003D80005D054EA000C04BF1946104630BD91EA16
:1003E800030F1EBF0021002030BD5FEA545C05D119
:1003F8004000494128BF41F0004130BD14F5800458
:100408003CBF01F5801130BD01F0004545F0FE41CB
:1004180041F470014FF0000030BD7FEA645C1ABF00
:10042800194610467FEA655C1CBF0B46024650EA37
:10043800013406BF52EA033591EA030F41F4002163
:1004480030BD00BF90F0000F04BF0021704730B5E9
:100458004FF4806404F132044FF000054FF00001BE
:1004680050E700BF90F0000F04BF0021704730B57F
:100478004FF4806404F1320410F0004548BF404254
:100488004FF000013EE700BF42004FEAE2014FEAA9
:1004980031014FEA02701FBF12F07F4393F07F4F84
:1004A80081F06051704732F07F4208BF704793F087
:1004B8007F4F04BF41F40021704730B54FF460749A
:1004C80001F0004521F000411CE700BF50EA01029D
:1004D80008BF704730B54FF000050AE050EA010246
:1004E80008BF704730B511F0004502D5404261EBB6
:1004F80041014FF4806404F132045FEA915C3FF4F7
:10050800D8AE4FF003025FEADC0C18BF03325FEA93
:10051800DC0C18BF033202EBDC02C2F1200300FA44
:1005280003FC20FA02F001FA03FE40EA0E0021FA69
:1005380002F11444BDE600BF70B54FF0FF0C4CF457
:10054800E06C1CEA11541DBF1CEA135594EA0C0F09
:1005580095EA0C0F00F0DEF82C4481EA030621EA44
:100568004C5123EA4C5350EA013518BF52EA03357F
:1005780041F4801143F4801338D0A0FB02CE4FF031
:100588000005E1FB02E506F00042E0FB03E54FF061
:100598000006E1FB03569CF0000F18BF4EF0010E59
:1005A800A4F1FF04B6F5007F64F5407404D25FEA55
:1005B8004E0E6D4146EB060642EAC62141EA555108
:1005C8004FEAC52040EA5E504FEACE2EB4F1FD0C4A
:1005D80088BFBCF5E06F1ED8BEF1004F08BF5FEAC8
:1005E800500E50F1000041EB045170BD06F000467A
:1005F80046EA010140EA020081EA0301B4EB5C0427
:10060800C2BFD4EB0C0541EA045170BD41F480111E
:100618004FF0000E013C00F3AB8014F1360FDEBF43
:10062800002001F0004170BDC4F10004203C35DA1F
:100638000C341BDC04F11404C4F1200500FA05F3A2
:1006480020FA04F001FA05F240EA020001F0004243
:1006580021F0004110EBD37021FA04F642EB0601B9
:100668005EEA430E08BF20EAD37070BDC4F10C04E3
:10067800C4F1200500FA04F320FA05F001FA04F2A7
:1006880040EA020001F0004110EBD37041F1000193
:100698005EEA430E08BF20EAD37070BDC4F120059E
:1006A80000FA05F24EEA020E20FA04F301FA05F206
:1006B80043EA020321FA04F001F0004121FA04F2AE
:1006C80020EA020000EBD3705EEA430E08BF20EA7E
:1006D800D37070BD94F0000F0FD101F000464000B8
:1006E80041EB010111F4801F08BF013CF7D041EA3A
:1006F800060195F0000F18BF704703F0004652003E
:1007080043EB030313F4801F08BF013DF7D043EA0E
:100718000603704794EA0C0F0CEA135518BF95EAC4
:100728000C0F0CD050EA410618BF52EA4306D1D14B
:1007380081EA030101F000414FF0000070BD50EA6A
:10074800410606BF1046194652EA430619D094EAF4
:100758000C0F02D150EA013613D195EA0C0F05D1DE
:1007680052EA03361CBF104619460AD181EA030132
:1007780001F0004141F0FE4141F470014FF00000EA
:1007880070BD41F0FE4141F4780170BD70B54FF085
:10079800FF0C4CF4E06C1CEA11541DBF1CEA135505
:1007A80094EA0C0F95EA0C0F00F0A7F8A4EB0504E7
:1007B80081EA030E52EA03354FEA013100F08880DE
:1007C8004FEA03334FF0805545EA131343EA1263A7
:1007D8004FEA022245EA111545EA10654FEA00265C
:1007E8000EF000419D4208BF964244F1FD0404F515
:1007F800407402D25B084FEA3202B61A65EB030571
:100808005B084FEA32024FF480104FF4002CB6EB2D
:10081800020E75EB030E22BFB61A754640EA0C00AD
:100828005B084FEA3202B6EB020E75EB030E22BFED
:10083800B61A754640EA5C005B084FEA3202B6EB2E
:10084800020E75EB030E22BFB61A754640EA9C00ED
:100858005B084FEA3202B6EB020E75EB030E22BFBD
:10086800B61A754640EADC0055EA060E18D04FEA7B
:10087800051545EA16754FEA06164FEAC30343EA1B
:1008880052734FEAC2025FEA1C1CC0D111F4801FE8
:100898000BD141EA00014FF000004FF0004CB6E7E1
:1008A80011F4801F04BF01430020B4F1FD0C88BF80
:1008B800BCF5E06F3FF6AFAEB5EB030C04BFB6EB8B
:1008C800020C5FEA500C50F1000041EB045170BD7E
:1008D8000EF0004E4EEA113114EB5C04C2BFD4EBAB
:1008E8000C0541EA045170BD41F480114FF0000E2F
:1008F800013C90E645EA060E8DE60CEA135594EAAB
:100908000C0F08BF95EA0C0F3FF43BAF94EA0C0FAD
:100918000AD150EA01347FF434AF95EA0C0F7FF422
:1009280025AF104619462CE795EA0C0F06D152EA76
:1009380003353FF4FDAE1046194622E750EA41065A
:1009480018BF52EA43067FF4C5AE50EA41047FF46B
:100958000DAF52EA43057FF4EBAE12E74FF0FF3CD0
:1009680006E000BF4FF0010C02E000BF4FF0010CA1
:100978004DF804CD4FEA410C7FEA6C5C4FEA430C1A
:1009880018BF7FEA6C5C1BD001B050EA410C0CBF69
:1009980052EA430C91EA030F02BF90EA020F0020CB
:1009A800704710F1000F91EA030F58BF994208BF32
:1009B80090422CBFD8176FEAE37040F001007047EF
:1009C8004FEA410C7FEA6C5C02D150EA013C07D146
:1009D8004FEA430C7FEA6C5CD6D152EA033CD3D091
:1009E8005DF8040B704700BF8446104662468C468B
:1009F8001946634600E000BF01B5FFF7B7FF0028BE
:100A080048BF10F1000F01BD4DF808EDFFF7F4FFE6
:100A18000CBF012000205DF808FB00BF4DF808ED71
:100A2800FFF7EAFF34BF012000205DF808FB00BF94
:100A38004DF808EDFFF7E0FF94BF012000205DF8B6
:100A480008FB00BF4DF808EDFFF7CEFF94BF01206B
:100A580000205DF808FB00BF4DF808EDFFF7C4FF64
:100A680034BF012000205DF808FB00BF4FEA410CAD
:100A78007FEA6C5C02D150EA013C0AD14FEA430C90
:100A88007FEA6C5C02D152EA033C02D14FF00000CD
:100A980070474FF0010070474FEA4102B2F1E0435E
:100AA80024BFB3F5001CDCF1FE5C0DD901F0004C4D
:100AB8004FEAC0024CEA5070B2F1004F40EB83009D
:100AC80008BF20F00100704711F0804F21D113F1C9
:100AD8003872BCBF01F00040704741F480114FEA02
:100AE8005252C2F11802C2F1200C10FA0CF320FA8B
:100AF80002F018BF40F001004FEAC1234FEAD323A8
:100B080003FA0CFC40EA0C0023FA02F34FEA430311
:100B1800CCE77FEA625307D150EA01331EBF4FF09A
:100B2800FE4040F44000704701F0004040F0FE40B5
:100B380040F40000704700BF53B94AB9002908BF04
:100B480000281CBF4FF0FF314FF0FF3000F072B9A2
:100B5800ADF1080C6DE904CE00F006F8DDF804E00C
:100B6800DDE9022304B070472DE9F047089E0446EA
:100B78008846002B4BD18A42154667D9B2FA82F2D1
:100B88004AB1C2F1200701FA02F320FA07F79540AB
:100B980047EA030894404FEA154E230CB8FBFEF7CA
:100BA8001FFA85FC0EFB178843EA084307FB0CF184
:100BB800994209D9EB1807F1FF3080F01B8199425F
:100BC80040F21881023F2B445B1AA4B2B3FBFEF03B
:100BD8000EFB103344EA034400FB0CFCA44509D97E
:100BE8002C1900F1FF3380F00781A44540F20481FD
:100BF80002382C4440EA0740A4EB0C0400271EB13D
:100C0800D4400023C6E900433946BDE8F0878B424B
:100C180009D9002E00F0EB800027C6E9000138460C
:100C28003946BDE8F087B3FA83F7002F47D18B42E6
:100C380002D3824200F2FA80841A61EB0303012096
:100C48009846002EE0D0C6E90048DDE702B9FFDE8D
:100C5800B2FA82F2002A40F08F80491B4FEA154E03
:100C68001FFA85F80127B1FBFEFC230C0EFB1C11B3
:100C780043EA014308FB0CF1994207D9EB180CF140
:100C8800FF3002D2994200F2CD808446591AA3B2AD
:100C9800B1FBFEF00EFB101443EA044408FB00F815
:100CA800A04507D92C1900F1FF3302D2A04500F264
:100CB800B6801846A4EB080440EA0C409FE7C7F149
:100CC800200CBB4022FA0CFE4EEA030E01FA07F490
:100CD80020FA0CF521FA0CF34FEA1E482543B3FB22
:100CE800F8F92C0C08FB19331FFA8EFA44EA03436F
:100CF80009FB0AF49C4202FA07F200FA07F10BD941
:100D08001EEB030309F1FF3080F087809C4240F21C
:100D18008480A9F1020973441B1BADB2B3FBF8F040
:100D280008FB103345EA034400FB0AFAA24508D938
:100D38001EEB040400F1FF336BD2A24569D90238D7
:100D4800744440EA0940A0FB0289A4EB0A044C451C
:100D5800C2464B4654D351D0002E69D0B1EB0A0598
:100D680064EB030404FA0CFCFD40FC404CEA050566
:100D7800C6E90054002747E7C2F1200320FA03F729
:100D8800954001FA02F021FA03F34FEA154E384371
:100D9800010CB3FBFEF71FFA85F80EFB173341EA87
:100DA800034107FB08F38B4204FA02F407D96918D8
:100DB80007F1FF3C2FD28B422DD9023F2944CB1A91
:100DC80081B2B3FBFEF00EFB103341EA034100FB96
:100DD80008F38B4207D9691800F1FF3C17D28B4200
:100DE80015D902382944C91A40EA07473BE737466C
:100DF800304609E70746E7E61846FBE64145ABD229
:100E0800B8EB020A69EB0E0201381346A4E7604604
:100E1800E9E7184695E76746D1E781467CE7023857
:100E28002C4447E7ACF1020C2B442FE7384608E77F
:100E38003746E9E6704700BF80B500AF0E4B1B6828
:100E48000D4A43F4007313600B4B1B680A4A43F4C2
:100E580080631360084B1B68074A43F48073136070
:100E6800032000F017FD002000F008F804F050FD02
:100E78000023184680BD00BF003C024080B582B008
:100E880000AF7860124B1A68124B1B7819464FF462
:100E98007A73B3FBF1F3B2FBF3F3184600F02FFDBE
:100EA8000346002B01D001230EE07B680F2B0AD8E4
:100EB800002279684FF0FF3000F0F7FC064A7B68A3
:100EC8001360002300E0012318460837BD4680BDA3
:100ED80008000020040000200000002080B400AFBB
:100EE800064B1B781A46064B1B681344044A1360CA
:100EF80000BFBD465DF8047B704700BF04000020BA
:100F08009C01002080B400AF034B1B681846BD4607
:100F18005DF8047B704700BF9C01002080B584B059
:100F280000AF78600023FB737B68002B01D101239D
:100F380033E07B681B6C002B09D1786804F010FD46
:100F48007B6800225A647B68002283F83C207B6817
:100F58001B6C03F01003002B18D17B681B6C23F467
:100F6800885323F0020343F002027B681A6478680E
:100F780000F0C4FA7B6800225A647B681B6C23F07B
:100F8800030343F001027B681A6401E00123FB7349
:100F98007B68002283F83C20FB7B18461037BD464F
:100FA80080BD000080B485B000AF78600023BB60CE
:100FB8007B6893F83C30012B01D10223A5E07B68C4
:100FC800012283F83C207B681B689B6803F00103BF
:100FD800012B18D07B681B689A687B681B6842F0F5
:100FE80001029A604C4B1B684C4AA2FB03239A0CE3
:100FF80013465B001344BB6002E0BB68013BBB6067
:10100800BB68002BF9D17B681B689B6803F0010360
:10101800012B79D17B681B6C23F4E06323F0010377
:1010280043F480727B681A647B681B685B6803F40E
:101038008063002B07D07B681B6C23F4405343F478
:1010480080527B681A647B681B6C03F48053B3F589
:10105800805F06D17B685B6C23F006027B685A646C
:1010680002E07B6800225A647B68002283F83C20F7
:101078002B4BFB607B681B686FF022021A60FB68D1
:101088005B6803F01F03002B2AD17B681B68254A85
:10109800934215D07B681B68234A934205D1204BA5
:1010A8005B6803F01F03002B0AD07B681B681F4A8C
:1010B800934229D11A4B5B6803F01F030F2B23D8E7
:1010C8007B681B689B6803F04053002B1CD17B682E
:1010D8001B689A687B681B6842F080429A6013E03C
:1010E8007B681B680F4A93420ED17B681B689B681C
:1010F80003F04053002B07D17B681B689A687B6814
:101108001B6842F080429A60002318461437BD4697
:101118005DF8047B704700BF0800002083DE1B4396
:10112800002301400020014000210140002201402D
:1011380080B483B000AF78607B6893F83C30012BB3
:1011480001D1022321E07B68012283F83C207B68DF
:101158001B689A687B681B6822F001029A607B68AA
:101168001B689B6803F00103002B09D17B681B6C8B
:1011780023F4885323F0010343F001027B681A64C7
:101188007B68002283F83C20002318460C37BD46B4
:101198005DF8047B704780B584B000AF7860396033
:1011A8000023FB607B681B689B6803F48063B3F5CE
:1011B800806F13D17B681B689B6803F48073B3F559
:1011C800807F0BD17B681B6C43F020027B681A641C
:1011D8007B68002283F83C2001235CE0FFF792FE45
:1011E800F8601AE03B68B3F1FF3F16D03B68002B6C
:1011F80007D0FFF787FE0246FB68D31A3A689A427F
:101208000BD27B681B6C43F004027B681A647B6812
:10121800002283F83C2003233DE07B681B681B68A1
:1012280003F00203022BDDD17B681B686FF012020A
:101238001A607B681B6C43F400727B681A647B68D5
:101248001B689B6803F04053002B23D17B681B7EEF
:10125800002B1FD17B681B68DB6A03F47003002B2B
:1012680006D07B681B689B6803F48063002B11D150
:101278007B681B6C23F480727B681A647B681B6C28
:1012880003F48053002B05D17B681B6C43F00102EB
:101298007B681A64002318461037BD4680BD80B4A9
:1012A80083B000AF78607B681B68DB6C18460C372E
:1012B800BD465DF8047B704780B485B000AF7860A8
:1012C80039600023BB607B6893F83C30012B01D167
:1012D800022305E17B68012283F83C203B681B68F8
:1012E800092B25D97B681B68D9683B681B689BB2AA
:1012F8001A4613465B0013441E3B072202FA03F307
:10130800DA437B681B680A40DA607B681B68D96827
:101318003B689A683B681B689BB2184603465B00AB
:1013280003441E3B9A407B681B680A43DA6022E04C
:101338007B681B6819693B681B689BB21A46134691
:101348005B001344072202FA03F3DA437B681B6845
:101358000A401A617B681B6819693B689A683B6890
:101368001B689BB2184603465B0003449A407B689F
:101378001B680A431A613B685B68062B24D87B68A4
:101388001B68596B3B685A6813469B001344053B1E
:101398001F2202FA03F3DA437B681B680A405A6388
:1013A8007B681B68596B3B681B689BB218463B6897
:1013B8005A6813469B001344053B00FA03F27B6806
:1013C8001B680A435A634CE03B685B680C2B24D8C3
:1013D8007B681B68196B3B685A6813469B0013446B
:1013E800233B1F2202FA03F3DA437B681B680A4097
:1013F8001A637B681B68196B3B681B689BB21846AD
:101408003B685A6813469B001344233B00FA03F2D7
:101418007B681B680A431A6323E07B681B68D96AE8
:101428003B685A6813469B001344413B1F2202FA4B
:1014380003F3DA437B681B680A40DA627B681B683F
:10144800D96A3B681B689BB218463B685A681346C2
:101458009B001344413B00FA03F27B681B680A4374
:10146800DA62224BFB607B681B68214A934209D1F0
:101478003B681B68122B05D1FB685B6843F480024C
:10148800FB685A607B681B68194A934223D13B6802
:101498001B68102B03D03B681B68112B1BD1FB6802
:1014A8005B6843F40002FB685A603B681B68102BBA
:1014B80011D1104B1B68104AA2FB03239A0C134648
:1014C8009B0013445B00BB6002E0BB68013BBB6050
:1014D800BB68002BF9D17B68002283F83C200023ED
:1014E80018461437BD465DF8047B70470023014059
:1014F800002001400800002083DE1B4380B485B033
:1015080000AF7860794BFB60FB685B6823F440327E
:10151800FB685A60FB685A687B685B681A43FB681B
:101528005A607B681B685A687B681B6822F4807263
:101538005A607B681B6859687B681B691A027B685C
:101548001B680A435A607B681B685A687B681B687B
:1015580022F040725A607B681B6859687B689A68F9
:101568007B681B680A435A607B681B689A687B68BB
:101578001B6822F400629A607B681B6899687B6824
:10158800DA687B681B680A439A607B689B6A584ADA
:10159800934222D07B681B689A687B681B6822F09C
:1015A80070629A607B681B6899687B689A6A7B6836
:1015B8001B680A439A607B681B689A687B681B688B
:1015C80022F040529A607B681B6899687B68DA6AE7
:1015D8007B681B680A439A600FE07B681B689A68FF
:1015E8007B681B6822F070629A607B681B689A6847
:1015F8007B681B6822F040529A607B681B689A6877
:101608007B681B6822F002029A607B681B689968F5
:101618007B681B7E5A007B681B680A439A607B685C
:1016280093F82030002B1BD07B681B685A687B68B6
:101638001B6842F400625A607B681B685A687B68C2
:101648001B6822F460425A607B681B6859687B6893
:101658005B6A013B5A037B681B680A435A6007E0D0
:101668007B681B685A687B681B6822F400625A60B2
:101678007B681B68DA6A7B681B6822F47002DA628E
:101688007B681B68D96A7B68DB69013B1A057B6844
:101698001B680A43DA627B681B689A687B681B6868
:1016A80022F400729A607B681B6899687B6893F8DB
:1016B80030305A027B681B680A439A607B681B6853
:1016C8009A687B681B6822F480629A607B681B6852
:1016D80099687B685B699A027B681B680A439A6011
:1016E80000BF1437BD465DF8047B704700230140F6
:1016F8000100000F80B485B000AF78607B6803F00C
:101708000703FB600C4BDB68BB60BA684FF6FF034E
:101718001340BB60FB681A02BB68134343F0BF6306
:1017280043F40033BB60044ABB68D36000BF14377E
:10173800BD465DF8047B704700ED00E080B400AF63
:10174800044BDB681B0A03F007031846BD465DF827
:10175800047B704700ED00E080B483B000AF03461F
:10176800FB7197F90730002B0BDBFB7903F01F02A5
:10177800074997F907305B09012000FA02F241F89E
:10178800232000BF0C37BD465DF8047B704700BFBF
:1017980000E100E080B483B000AF03463960FB711C
:1017A80097F90730002B0ADB3B68DAB20C4997F946
:1017B80007301201D2B20B4483F800230AE03B68D9
:1017C800DAB20849FB7903F00F03043B1201D2B2E5
:1017D8000B441A7600BF0C37BD465DF8047B704792
:1017E80000E100E000ED00E080B489B000AFF860EF
:1017F800B9607A60FB6803F00703FB61FB69C3F11A
:101808000703042B28BF0423BB61FB690433062BA1
:1018180002D9FB69033B00E000237B614FF0FF32F4
:10182800BB6902FA03F3DA43BB681A407B699A4042
:101838004FF0FF317B6901FA03F3D9437B680B4012
:10184800134318462437BD465DF8047B70470000F3
:1018580080B582B000AF78607B68013BB3F1807FD0
:1018680001D301230FE00A4A7B68013B53600F2133
:101878004FF0FF30FFF78EFF054B00229A60044BB4
:1018880007221A60002318460837BD4680BD00BFEE
:1018980010E000E080B582B000AF78607868FFF7AC
:1018A80029FF00BF0837BD4680BD80B586B000AFB0
:1018B8000346B9607A60FB7300237B61FFF73EFF44
:1018C80078617A68B9687869FFF78EFF024697F9F8
:1018D8000F3011461846FFF75DFF00BF1837BD46A9
:1018E80080BD80B582B000AF0346FB7197F9073021
:1018F8001846FFF731FF00BF0837BD4680BD80B5E9
:1019080082B000AF78607868FFF7A2FF03461846F8
:101918000837BD4680BD80B483B000AF78607B686F
:1019280093F83530DBB2022B04D07B6880225A65ED
:1019380001230CE07B68052283F835207B681B684F
:101948001A687B681B6822F001021A600023184697
:101958000C37BD465DF8047B7047000080B489B041
:1019680000AF7860396000237B6100233B6100236E
:10197800BB610023FB616BE10122FB6902FA03F3FF
:101988007B613B681B687A6913403B613A697B69F4
:101998009A4240F05A813B685B68012B0BD03B6848
:1019A8005B68022B07D03B685B68112B03D03B6850
:1019B8005B68122B30D17B689B68BB61FB695B005D
:1019C800032202FA03F3DB43BA691340BB613B68A5
:1019D800DA68FB695B0002FA03F3BA691343BB6177
:1019E8007B68BA699A607B685B68BB610122FB69A6
:1019F80002FA03F3DB43BA691340BB613B685B68D7
:101A08001B0903F00102FB6902FA03F3BA691343E5
:101A1800BB617B68BA695A607B68DB68BB61FB693C
:101A28005B00032202FA03F3DB43BA691340BB618C
:101A38003B689A68FB695B0002FA03F3BA691343CF
:101A4800BB617B68BA69DA603B685B68022B03D0CC
:101A58003B685B68122B23D1FB69DA087B68083284
:101A680053F82230BB61FB6903F007039B000F2288
:101A780002FA03F3DB43BA691340BB613B681A6996
:101A8800FB6903F007039B0002FA03F3BA691343E7
:101A9800BB61FB69DA087B680832B96943F8221030
:101AA8007B681B68BB61FB695B00032202FA03F3D6
:101AB800DB43BA691340BB613B685B6803F0030210
:101AC800FB695B0002FA03F3BA691343BB617B68E5
:101AD800BA691A603B685B6803F08053002B00F01A
:101AE800B4800023FB605F4B5B6C5E4A43F4804329
:101AF80053645C4B5B6C03F48043FB60FB685A4A9D
:101B0800FB699B08023352F82330BB61FB6903F081
:101B180003039B000F2202FA03F3DB43BA69134065
:101B2800BB617B68514A93422BD07B68504A9342F1
:101B380025D07B684F4A93421FD07B684E4A934218
:101B480019D07B684D4A934213D07B684C4A934224
:101B58000DD07B684B4A934207D07B684A4A934230
:101B680001D107230EE008230CE006230AE0052331
:101B780008E0042306E0032304E0022302E0012333
:101B880000E00023FA6902F0030292009340BA6968
:101B98001343BB613449FB699B080233BA6941F8B6
:101BA80023203A4B1B68BB613B69DB43BA6913408E
:101BB800BB613B685B6803F48033002B03D0BA69D0
:101BC8003B691343BB61314ABB6913602F4B5B68A8
:101BD800BB613B69DB43BA691340BB613B685B6827
:101BE80003F40033002B03D0BA693B691343BB618C
:101BF800264ABB695360254B9B68BB613B69DB4345
:101C0800BA691340BB613B685B6803F48013002B1F
:101C180003D0BA693B691343BB611C4ABB69936033
:101C28001A4BDB68BB613B69DB43BA691340BB6194
:101C38003B685B6803F40013002B03D0BA693B6967
:101C48001343BB61114ABB69D360FB690133FB6174
:101C5800FB690F2B7FF690AE00BF2437BD465DF8B9
:101C6800047B704700380240003801400000024001
:101C78000004024000080240000C0240001002402C
:101C88000014024000180240001C0240003C0140C1
:101C980080B584B000AF78607B68002B01D1012348
:101CA8001FE17B6893F83D30DBB2002B06D17B68DF
:101CB800002283F83C20786803F096FE7B68242293
:101CC80083F83D207B681B681A687B681B6822F0D4
:101CD80001021A607B681B681A687B681B6842F4FB
:101CE80000421A607B681B681A687B681B6822F4CC
:101CF80000421A6001F068FBF8607B685B687B4A09
:101D0800934207D8FB687A4A934294BF0123002381
:101D1800DBB206E0FB68774A934294BF01230023B5
:101D2800DBB2002B01D00123DBE0FB68724AA2FB87
:101D380003239B0CBB607B681B685B6823F03F0137
:101D48007B681B68BA680A435A607B681B681B6A11
:101D580023F03F017B685B68644A934202D8BB6802
:101D6800013309E0BB684FF4967202FB03F3634A40
:101D7800A2FB03239B0901337A6812680B431362A1
:101D88007B681B68DB6923F44F4222F0FF027B6803
:101D98005B6856498B420DD8FB68591E7B685B68A7
:101DA8005B00B1FBF3F30133C3F30B03042B38BF20
:101DB80004234FE07B689B68002B11D1FB68581EF9
:101DC8007B6859680B465B000B44B0FBF3F30133A7
:101DD800C3F30B03002B0CBF01230023DBB212E07B
:101DE800FB68581E7B6859680B469B000B4499009A
:101DF8000B44B0FBF3F30133C3F30B03002B0CBF0D
:101E080001230023DBB2002B01D0012322E07B68F1
:101E18009B68002B0ED1FB68581E7B6859680B46DF
:101E28005B000B44B0FBF3F30133C3F30B0343F440
:101E380000430FE0FB68581E7B6859680B469B00FF
:101E48000B4499000B44B0FBF3F30133C3F30B03CA
:101E580043F44043796809681343CB617B681B6886
:101E68001B6823F0C0017B68DA697B681B6A1A4328
:101E78007B681B680A431A607B681B689B6823F4AD
:101E8800034323F0FF037A6811697A68D268114323
:101E98007A6812680B4393607B681B68DB6823F0E1
:101EA800FF017B685A697B689B691A437B681B68DA
:101EB8000A43DA607B681B681A687B681B6842F013
:101EC80001021A607B6800221A647B68202283F86A
:101ED8003D207B6800221A637B68002283F83E203D
:101EE800002318461037BD4680BD00BFA0860100FC
:101EF8007F841E00FF083D0083DE1B43D34D621024
:101F080080B588B002AFF8607A601A460B467B81CC
:101F180013463B81FEF7F6FF7861FB6893F83D3086
:101F2800DBB2202B40F0E0807B690093192301226B
:101F38007049F86800F056FC0346002B01D00223D4
:101F4800D3E0FB6893F83C30012B01D10223CCE0AD
:101F5800FB68012283F83C20FB681B681B6803F0C0
:101F68000103012B07D0FB681B681A68FB681B6814
:101F780042F001021A60FB681B681A68FB681B685C
:101F880022F400621A60FB68212283F83D20FB6876
:101F9800102283F83E20FB6800221A64FB687A68E6
:101FA8005A62FB683A895A85FB685B8D9AB2FB686E
:101FB8001A85FB68504ADA6279897B693A6AF86857
:101FC80000F0C2FA0346002B01D001238DE0002364
:101FD8003B61FB681B685B693B61FB681B689B692D
:101FE8003B613B6966E07A69396AF86800F0D0FCC1
:101FF8000346002B0DD0FB681B6C042B07D1FB6834
:102008001B681A68FB681B6842F400721A60012397
:102018006BE0FB685B6A1A78FB681B681A61FB68EF
:102028005B6A5A1CFB685A62FB685B8D9BB2013B7A
:102038009AB2FB685A85FB681B8D013B9AB2FB6814
:102048001A85FB681B685B6903F00403042B1BD12A
:10205800FB681B8D002B17D0FB685B6A1A78FB683E
:102068001B681A61FB685B6A5A1CFB685A62FB684A
:102078005B8D9BB2013B9AB2FB685A85FB681B8D4E
:10208800013B9AB2FB681A857A69396AF86800F0E8
:10209800C0FC0346002B0DD0FB681B6C042B07D13A
:1020A800FB681B681A68FB681B6842F400721A60B8
:1020B80001231AE0FB681B8D002B94D1FB681B6879
:1020C8001A68FB681B6842F400721A60FB682022D9
:1020D80083F83D20FB68002283F83E20FB6800223D
:1020E80083F83C20002300E0022318461837BD4639
:1020F80080BD00BF020010000000FFFF80B58CB05B
:1021080002AFF8607A601A460B467B8113463B8122
:10211800FEF7F8FE7862FB6893F83D30DBB2202BBF
:1021280040F00B827B6A0093192301227C49F868EE
:1021380000F058FB0346002B01D00223FEE1FB68A8
:1021480093F83C30012B01D10223F7E1FB6801220F
:1021580083F83C20FB681B681B6803F00103012B14
:1021680007D0FB681B681A68FB681B6842F001020D
:102178001A60FB681B681A68FB681B6822F4006217
:102188001A60FB68222283F83D20FB68102283F83E
:102198003E20FB6800221A64FB687A685A62FB6872
:1021A8003A895A85FB685B8D9AB2FB681A85FB6889
:1021B8005C4ADA6279897B6A3A6BF86800F046FA19
:1021C8000346002B01D00123B8E1FB681B8D002BCF
:1021D80013D100233B62FB681B685B693B62FB68A9
:1021E8001B689B693B623B6AFB681B681A68FB6853
:1021F8001B6842F400721A608CE1FB681B8D012B8E
:102208001BD1FB681B681A68FB681B6822F4806294
:102218001A600023FB61FB681B685B69FB61FB6854
:102228001B689B69FB61FB69FB681B681A68FB6894
:102238001B6842F400721A606CE1FB681B8D022B6C
:102248001BD1FB681B681A68FB681B6822F4806254
:102258001A60FB681B681A68FB681B6842F4006216
:102268001A600023BB61FB681B685B69BB61FB6884
:102278001B689B69BB61BB694CE1FB681B681A68FA
:10228800FB681B6842F480621A6000237B61FB686C
:102298001B685B697B61FB681B689B697B617B6969
:1022A80038E1FB681B8D032B00F2F180FB681B8D66
:1022B800012B23D17A6A396BF86800F0EBFB0346EF
:1022C800002B01D0012339E1FB681B681A69FB6800
:1022D8005B6AD2B21A70FB685B6A5A1CFB685A6266
:1022E800FB681B8D013B9AB2FB681A85FB685B8D06
:1022F8009BB2013B9AB2FB685A850BE1FB681B8DC8
:10230800022B4ED17B6A00933B6B00220649F8688A
:1023180000F068FA0346002B08D001230EE100BF45
:10232800020010000000FFFF04000100FB681B68AA
:102338001A68FB681B6842F400721A60FB681B6825
:102348001A69FB685B6AD2B21A70FB685B6A5A1C2E
:10235800FB685A62FB681B8D013B9AB2FB681A85C1
:10236800FB685B8D9BB2013B9AB2FB685A85FB68A0
:102378001B681A69FB685B6AD2B21A70FB685B6AF1
:102388005A1CFB685A62FB681B8D013B9AB2FB68BA
:102398001A85FB685B8D9BB2013B9AB2FB685A8534
:1023A800B8E07B6A00933B6B00226649F86800F04E
:1023B80019FA0346002B01D00123BFE0FB681B6814
:1023C8001A68FB681B6822F480621A60FB681B6845
:1023D8001A69FB685B6AD2B21A70FB685B6A5A1C9E
:1023E800FB685A62FB681B8D013B9AB2FB681A8531
:1023F800FB685B8D9BB2013B9AB2FB685A857B6A8E
:1024080000933B6B00224F49F86800F0EBF9034654
:10241800002B01D0012391E0FB681B681A68FB6858
:102428001B6842F400721A60FB681B681A69FB6833
:102438005B6AD2B21A70FB685B6A5A1CFB685A6204
:10244800FB681B8D013B9AB2FB681A85FB685B8DA4
:102458009BB2013B9AB2FB685A85FB681B681A69F4
:10246800FB685B6AD2B21A70FB685B6A5A1CFB682D
:102478005A62FB681B8D013B9AB2FB681A85FB68A0
:102488005B8D9BB2013B9AB2FB685A8542E07A6A3F
:10249800396BF86800F0FEFA0346002B01D00123DF
:1024A8004CE0FB681B681A69FB685B6AD2B21A7059
:1024B800FB685B6A5A1CFB685A62FB681B8D013B10
:1024C8009AB2FB681A85FB685B8D9BB2013B9AB296
:1024D800FB685A85FB681B685B6903F00403042BDF
:1024E80018D1FB681B681A69FB685B6AD2B21A705C
:1024F800FB685B6A5A1CFB685A62FB681B8D013BD0
:102508009AB2FB681A85FB685B8D9BB2013B9AB255
:10251800FB685A85FB681B8D002B7FF4C2AEFB68F5
:10252800202283F83D20FB68002283F83E20FB68C8
:10253800002283F83C20002300E0022318462837B5
:10254800BD4680BD0400010080B588B002AFF860C8
:102558007A603B600B467B81FB68DB6A7B617B6949
:10256800082B06D07B69012B03D07B6913F5803FCC
:1025780008D1FB681B681A68FB681B6842F4807204
:102588001A600BE0FB681B6B122B07D1FB681B68FA
:102598001A68FB681B6842F480721A603B680093F3
:1025A8007B6800224FF00111F86800F01BF9034620
:1025B800002B0CD0FB681B681B6803F48073002B8E
:1025C80003D0FB684FF400721A64032335E0FB68FC
:1025D8001B69B3F5804F08D17B89DBB21A46FB68CB
:1025E8001B6802F0FE021A611BE07B89DB11DBB27B
:1025F80003F00603DBB263F00F03DAB2FB681B6873
:102608001A613B687A680F49F86800F042F9034696
:10261800002B01D0012310E07B89DAB2FB681B682C
:102628001A613B687A680849F86800F032F903468D
:10263800002B01D0012300E0002318461837BD46BF
:1026480080BD00BF080001000200010080B588B00D
:1026580002AFF8607A603B600B467B81FB68DB6AFF
:102668007B61FB681B681A68FB681B6842F4806220
:102678001A607B69082B06D07B69012B03D07B6924
:1026880013F5803F08D1FB681B681A68FB681B6854
:1026980042F480721A600BE0FB681B6B112B07D1A8
:1026A800FB681B681A68FB681B6842F480721A6032
:1026B8003B6800937B6800224FF00111F86800F036
:1026C80091F80346002B0CD0FB681B681B6803F4C9
:1026D8008073002B03D0FB684FF400721A64032345
:1026E80078E0FB681B69B3F5804F08D17B89DBB2C2
:1026F80043F00103DAB2FB681B681A615EE07B896C
:10270800DB11DBB203F00603DBB263F00F03DAB2CE
:10271800FB681B681A613B687A683049F86800F002
:10272800B8F80346002B01D0012353E07B89DAB2C5
:10273800FB681B681A613B687A682949F86800F0E9
:10274800A8F80346002B01D0012343E000233B6196
:10275800FB681B685B693B61FB681B689B693B61A5
:102768003B69FB681B681A68FB681B6842F4807247
:102778001A603B6800937B6800224FF00111F868EB
:1027880000F030F80346002B0CD0FB681B681B6870
:1027980003F48073002B03D0FB684FF400721A64B3
:1027A800032317E07B89DB11DBB203F00603DBB2FE
:1027B80063F00E03DAB2FB681B681A613B687A683B
:1027C8000749F86800F065F80346002B01D001239B
:1027D80000E0002318461837BD4680BD08000100F8
:1027E8000200010080B584B000AFF860B9603B60BA
:1027F8001346FB7125E03B68B3F1FF3F21D0FEF79C
:1028080081FB0246BB69D31A3A689A4202D33B68F5
:10281800002B16D1FB6800221A63FB68202283F87C
:102828003D20FB68002283F83E20FB681B6C43F0C8
:102838002002FB681A64FB68002283F83C2001230D
:1028480023E0BB681B0CDBB2012B0DD1FB681B68B6
:102858005B69DA43BB6813409BB2002B0CBF0123B2
:102868000023DBB21A460CE0FB681B689B69DA435D
:10287800BB6813409BB2002B0CBF01230023DBB2C3
:102888001A46FB799A42B6D0002318461037BD463F
:1028980080BD80B584B000AFF860B9607A603B60F5
:1028A80051E0FB681B685B6903F48063B3F5806FD4
:1028B80023D1FB681B681A68FB681B6842F4007226
:1028C8001A60FB681B686FF480625A61FB6800221B
:1028D8001A63FB68202283F83D20FB68002283F8F6
:1028E8003E20FB681B6C43F00402FB681A64FB681B
:1028F800002283F83C20012346E07B68B3F1FF3FC8
:1029080021D0FEF7FFFA02463B68D31A7A689A424A
:1029180002D37B68002B16D1FB6800221A63FB6880
:10292800202283F83D20FB68002283F83E20FB68C4
:102938001B6C43F02002FB681A64FB68002283F8D2
:102948003C20012320E0BB681B0CDBB2012B0CD11F
:10295800FB681B685B69DA43BB6813409BB2002BBA
:1029680014BF01230023DBB20BE0FB681B689B69E3
:10297800DA43BB6813409BB2002B14BF012300232A
:10298800DBB2002B8DD1002318461037BD4680BD21
:1029980080B584B000AFF860B9607A602DE0F8685F
:1029A80000F0CEF80346002B01D001232DE0BB68D0
:1029B800B3F1FF3F21D0FEF7A5FA02467B68D31A90
:1029C800BA689A4202D3BB68002B16D1FB68002272
:1029D8001A63FB68202283F83D20FB68002283F8F5
:1029E8003E20FB681B6C43F02002FB681A64FB68FE
:1029F800002283F83C20012307E0FB681B685B6921
:102A080003F08003802BCAD1002318461037BD4637
:102A180080BD80B584B000AFF860B9607A602DE001
:102A2800F86800F08DF80346002B01D001232DE053
:102A3800BB68B3F1FF3F21D0FEF764FA02467B681A
:102A4800D31ABA689A4202D3BB68002B16D1FB6826
:102A580000221A63FB68202283F83D20FB680022CD
:102A680083F83E20FB681B6C43F02002FB681A6465
:102A7800FB68002283F83C20012307E0FB681B6801
:102A88005B6903F00403042BCAD1002318461037EE
:102A9800BD4680BD80B584B000AFF860B9607A608B
:102AA80042E0FB681B685B6903F01003102B19D127
:102AB800FB681B686FF010025A61FB6800221A63FA
:102AC800FB68202283F83D20FB68002283F83E2023
:102AD800FB681A6CFB681A64FB68002283F83C20C8
:102AE800012329E0FEF70EFA02467B68D31ABA687A
:102AF8009A4202D3BB68002B16D1FB6800221A63E6
:102B0800FB68202283F83D20FB68002283F83E20E2
:102B1800FB681B6C43F02002FB681A64FB68002208
:102B280083F83C20012307E0FB681B685B6903F01E
:102B38004003402BB5D1002318461037BD4680BD51
:102B480080B483B000AF78607B681B685B6903F46E
:102B58008063B3F5806F1BD17B681B686FF480625C
:102B68005A617B6800221A637B68202283F83D2023
:102B78007B68002283F83E207B681B6C43F00402CC
:102B88007B681A647B68002283F83C20012300E0FC
:102B9800002318460C37BD465DF8047B70470000DB
:102BA80080B586B000AF78607B68002B01D1012327
:102BB8005BE27B681B6803F00103002B75D0A34B15
:102BC8009B6803F00C03042B0CD0A04B9B6803F00C
:102BD8000C03082B12D19D4B5B6803F48003B3F5FB
:102BE800800F0BD1994B1B6803F40033002B5BD08B
:102BF8007B685B68002B57D1012336E27B685B68F2
:102C0800B3F5803F06D1914B1B68904A43F480335B
:102C180013601DE07B685B68B3F5A02F0CD18B4B6C
:102C28001B688A4A43F480231360884B1B68874AD1
:102C380043F4803313600BE0844B1B68834A23F40E
:102C480080331360814B1B68804A23F48023136010
:102C58007B685B68002B13D0FEF754F9386108E0F5
:102C6800FEF750F902463B69D31A642B01D90323B6
:102C7800FBE1764B1B6803F40033002BF0D014E023
:102C8800FEF740F9386108E0FEF73CF902463B6977
:102C9800D31A642B01D90323E7E16C4B1B6803F4B7
:102CA8000033002BF0D100E000BF7B681B6803F005
:102CB8000203002B63D0654B9B6803F00C03002BC9
:102CC8000BD0624B9B6803F00C03082B1CD15F4BA5
:102CD8005B6803F48003002B16D15C4B1B6803F080
:102CE8000203002B05D07B68DB68012B01D0012390
:102CF800BBE1564B1B6823F0F8027B681B69DB00BD
:102D0800524913430B603AE07B68DB68002B20D004
:102D18004F4B01221A60FEF7F5F8386108E0FEF71C
:102D2800F1F802463B69D31A022B01D903239CE12F
:102D3800464B1B6803F00203002BF0D0434B1B6883
:102D480023F0F8027B681B69DB00404913430B60E2
:102D580015E03F4B00221A60FEF7D4F8386108E00E
:102D6800FEF7D0F802463B69D31A022B01D9032398
:102D78007BE1364B1B6803F00203002BF0D17B6824
:102D88001B6803F00803002B30D07B685B69002BBD
:102D980016D0304B01221A60FEF7B4F8386108E00B
:102DA800FEF7B0F802463B69D31A022B01D9032378
:102DB8005BE1264B5B6F03F00203002BF0D015E0BC
:102DC800244B00221A60FEF79DF8386108E0FEF7F0
:102DD80099F802463B69D31A022B01D9032344E12F
:102DE8001A4B5B6F03F00203002BF0D17B681B6862
:102DF80003F00403002B00F0A0800023FB75134BA5
:102E08001B6C03F08053002B0FD10023BB600F4BCA
:102E18001B6C0E4A43F0805313640C4B1B6C03F07D
:102E28008053BB60BB680123FB750B4B1B6803F425
:102E38008073002B21D1084B1B68074A43F4807329
:102E48001360FEF75FF8386111E000BF00380240F8
:102E580000004742800E474200700040FEF752F8DB
:102E680002463B69D31A022B01D90323FDE0814BAB
:102E78001B6803F48073002BF0D07B689B68012BE0
:102E880006D17D4B1B6F7C4A43F0010313671CE09E
:102E98007B689B68052B0CD1774B1B6F764A43F0F8
:102EA80004031367744B1B6F734A43F001031367E2
:102EB8000BE0714B1B6F704A23F0010313676E4BD5
:102EC8001B6F6D4A23F0040313677B689B68002B14
:102ED80015D0FEF717F838610AE0FEF713F8024636
:102EE8003B69D31A41F28832934201D90323BCE0EB
:102EF800614B1B6F03F00203002BEED014E0FEF7CA
:102F080001F838610AE0FDF7FDFF02463B69D31A74
:102F180041F28832934201D90323A6E0564B1B6F36
:102F280003F00203002BEED1FB7D012B05D1524BA0
:102F38001B6C514A23F0805313647B689B69002BF8
:102F480000F092804C4B9B6803F00C03082B5CD07C
:102F58007B689B69022B41D1484B00221A60FDF720
:102F6800D1FF386108E0FDF7CDFF02463B69D31A6F
:102F7800022B01D9032378E03F4B1B6803F0007351
:102F8800002BF0D17B68DA697B681B6A1A437B687F
:102F98005B6A9B011A437B689B6A5B08013B1B04C5
:102FA8001A437B68DB6A1B06334913434B60334B78
:102FB80001221A60FDF7A6FF386108E0FDF7A2FFBD
:102FC80002463B69D31A022B01D903234DE02A4B51
:102FD8001B6803F00073002BF0D045E0274B00225C
:102FE8001A60FDF78FFF386108E0FDF78BFF024696
:102FF8003B69D31A022B01D9032336E01E4B1B6809
:1030080003F00073002BF0D12EE07B689B69012B45
:1030180001D1012329E0184B9B68FB60FB6803F48E
:1030280080027B68DB699A421CD1FB6803F03F028F
:103038007B681B6A9A4215D1FA6847F6C073134039
:103048007A68526A93420DD1FB6803F440327B6878
:103058009B6A9A4206D1FB6803F070627B68DB6A60
:103068009A4201D0012300E0002318461837BD46D4
:1030780080BD00BF00700040003802406000474239
:1030880080B584B000AF786039607B68002B01D1CF
:103098000123CCE0684B1B6803F00F033A689A429F
:1030A8000CD9654B3A68D2B21A70634B1B6803F0AF
:1030B8000F033A689A4201D00123B8E07B681B6885
:1030C80003F00203002B20D07B681B6803F0040385
:1030D800002B05D0594B9B68584A43F4E053936042
:1030E8007B681B6803F00803002B05D0534B9B68D3
:1030F800524A43F460439360504B9B6823F0F002BC
:103108007B689B684D4913438B607B681B6803F0A1
:103118000103002B44D07B685B68012B07D1474B28
:103128001B6803F40033002B19D101237FE07B686F
:103138005B68022B03D07B685B68032B07D13F4B8E
:103148001B6803F00073002B09D101236FE03B4B90
:103158001B6803F00203002B01D1012367E0374B02
:103168009B6823F003027B685B68344913438B60D8
:10317800FDF7C8FEF8600AE0FDF7C4FE0246FB68EA
:10318800D31A41F28832934201D903234FE02B4BE3
:103198009B6803F00C027B685B689B009A42EBD14A
:1031A800254B1B6803F00F033A689A420CD2224B56
:1031B8003A68D2B21A70204B1B6803F00F033A68C2
:1031C8009A4201D0012332E07B681B6803F00403B4
:1031D800002B08D0194B9B6823F4E0527B68DB680E
:1031E800164913438B607B681B6803F00803002BA8
:1031F80009D0124B9B6823F460427B681B69DB0093
:103208000E4913438B6000F021F801460B4B9B6875
:103218001B0903F00F030A4AD35C21FA03F3094A96
:103228001360094B1B681846FDF728FE0023184653
:103238001037BD4680BD00BF003C02400038024048
:10324800206F00080800002000000020F0B585B0BD
:1032580000AF00237B600023FB6000233B6000235A
:10326800BB60504B9B6803F00C03042B07D0082B62
:1032780008D0002B40F08D804B4BBB608CE04B4B53
:10328800BB6089E0474B5B6803F03F037B60454BBD
:103298005B6803F48003002B23D0424B5B689B09D7
:1032A8004FF0000440F2FF114FF0000203EA01055D
:1032B80004EA02063D4A02FB06F1002202FB05F27F
:1032C8000A443A49A5FB0101531819467B684FF097
:1032D80000041A462346FDF72FFC03460C46FB6004
:1032E80049E0304B5B689B094FF0000440F2FF1146
:1032F8004FF0000203EA010504EA020629463246B5
:103308004FF000034FF00004540144EAD1644B012C
:1033180019462246491B62EB06024FF000034FF0A4
:103328000004940144EA91648B015B1A64EB020483
:103338004FF000014FF00002E20042EA5372D90058
:103348000B4614465B1944EB06044FF000014FF09E
:103358000002A20242EA935299020B46144618460A
:1033680021467B684FF000041A462346FDF7E4FB2C
:1033780003460C46FB600B4B5B681B0C03F0030316
:1033880001335B003B60FA683B68B2FBF3F3BB6058
:1033980002E0054BBB6000BFBB6818461437BD464A
:1033A800F0BD00BF003802400024F40040787D01E1
:1033B80080B400AF034B1B681846BD465DF8047B1C
:1033C800704700BF0800002080B500AFFFF7F0FF8E
:1033D8000146054B9B689B0A03F00703034AD35C2D
:1033E80021FA03F3184680BD00380240306F000808
:1033F80080B500AFFFF7DCFF0146054B9B685B0B10
:1034080003F00703034AD35C21FA03F3184680BD8F
:1034180000380240306F000880B582B000AF786095
:103428007B68002B01D101231DE07B6893F83D30B8
:10343800DBB2002B06D17B68002283F83C20786839
:1034480002F01AFB7B68022283F83D207B681A6829
:103458007B6804331946104600F014FA7B68012291
:1034680083F83D20002318460837BD4680BD80B448
:1034780085B000AF78607B681B68DA687B681B687A
:1034880042F00102DA607B681B689B6803F007035F
:10349800FB60FB68062B07D07B681B681A687B6893
:1034A8001B6842F001021A60002318461437BD4613
:1034B8005DF8047B704780B582B000AF78607B68A8
:1034C8001B681B6903F00203022B22D17B681B686F
:1034D800DB6803F00203022B1BD17B681B686FF0CB
:1034E80002021A617B6801221A777B681B689B6954
:1034F80003F00303002B03D0786800F0A5F905E07A
:10350800786800F097F9786800F0A8F97B680022DD
:103518001A777B681B681B6903F00403042B22D10C
:103528007B681B68DB6803F00403042B1BD17B68F2
:103538001B686FF004021A617B6802221A777B68A5
:103548001B689B6903F44073002B03D0786800F074
:103558007BF905E0786800F06DF9786800F07EF98D
:103568007B6800221A777B681B681B6903F00803D5
:10357800082B22D17B681B68DB6803F00803082B43
:103588001BD17B681B686FF008021A617B680422F4
:103598001A777B681B68DB6903F00303002B03D0F1
:1035A800786800F051F905E0786800F043F9786828
:1035B80000F054F97B6800221A777B681B681B6946
:1035C80003F01003102B22D17B681B68DB6803F023
:1035D8001003102B1BD17B681B686FF010021A6157
:1035E8007B6808221A777B681B68DB6903F44073E1
:1035F800002B03D0786800F027F905E0786800F020
:1036080019F9786800F02AF97B6800221A777B6834
:103618001B681B6903F00103012B0ED17B681B6833
:10362800DB6803F00103012B07D17B681B686FF08F
:1036380001021A61786802F0A1F87B681B681B69AF
:1036480003F08003802B0ED17B681B68DB6803F0D6
:103658008003802B07D17B681B686FF080021A619A
:10366800786800F0CFFA7B681B681B6903F0400399
:10367800402B0ED17B681B68DB6803F04003402BAE
:1036880007D17B681B686FF040021A61786800F008
:10369800EFF87B681B681B6903F02003202B0ED111
:1036A8007B681B68DB6803F02003202B07D17B684D
:1036B8001B686FF020021A61786800F099FA00BF61
:1036C8000837BD4680BD80B584B000AF78603960EA
:1036D8007B6893F83C30012B01D10223A6E07B687C
:1036E800012283F83C207B68022283F83D207B6816
:1036F8001B689B68FB60FB6823F07703FB60FB6833
:1037080023F47F43FB607B681B68FA689A603B6818
:103718001B68402B67D0402B0BD8102B73D0102B75
:1037280002D8002B6FD078E0202B6CD0302B6AD0D9
:1037380073E0702B0DD0702B04D8502B33D0602B36
:1037480041D06AE0B3F5805F66D0B3F5005F17D06B
:1037580063E07B6818683B6899683B685A683B680F
:10376800DB6800F0A9F97B681B689B68FB60FB6855
:1037780043F07703FB607B681B68FA689A604CE04B
:103788007B6818683B6899683B685A683B68DB68DF
:1037980000F092F97B681B689A687B681B6842F4A2
:1037A80080429A6039E07B6818683B6859683B68D2
:1037B800DB681A4600F006F97B681B68502118463A
:1037C80000F05FF929E07B6818683B6859683B6836
:1037D800DB681A4600F025F97B681B6860211846EB
:1037E80000F04FF919E07B6818683B6859683B6836
:1037F800DB681A4600F0E6F87B681B68402118462B
:1038080000F03FF909E07B681A683B681B681946B5
:10381800104600F036F900E000BF7B68012283F80B
:103828003D207B68002283F83C200023184610378F
:10383800BD4680BD80B483B000AF786000BF0C3750
:10384800BD465DF8047B704780B483B000AF7860F4
:1038580000BF0C37BD465DF8047B704780B483B069
:1038680000AF786000BF0C37BD465DF8047B704739
:1038780080B483B000AF786000BF0C37BD465DF8F8
:10388800047B704780B485B000AF786039607B688E
:103898001B68FB607B68404A934213D07B68B3F196
:1038A800804F0FD07B683D4A93420BD07B683C4ADF
:1038B800934207D07B683B4A934203D07B683A4ADD
:1038C800934208D1FB6823F07003FB603B685B6898
:1038D800FA681343FB607B682F4A93422BD07B68BE
:1038E800B3F1804F27D07B682C4A934223D07B6862
:1038F8002B4A93421FD07B682A4A93421BD07B688D
:10390800294A934217D07B68284A934213D07B6890
:10391800274A93420FD07B68264A93420BD07B6894
:10392800254A934207D07B68244A934203D07B6898
:10393800234A934208D1FB6823F44073FB603B6839
:10394800DB68FA681343FB60FB6823F080023B687E
:103958005B691343FB607B68FA681A603B689A6886
:103968007B68DA623B681A687B689A627B680A4AF5
:10397800934203D07B680C4A934203D13B681A698F
:103988007B681A637B6801225A6100BF1437BD4601
:103998005DF8047B704700BF000001400004004050
:1039A80000080040000C00400004014000400140B5
:1039B800004401400048014000180040001C00403D
:1039C8000020004080B487B000AFF860B9607A602A
:1039D800FB681B6A7B61FB681B6A23F00102FB68BA
:1039E8001A62FB689B693B613B6923F0F0033B610A
:1039F8007B681B013A6913433B617B6923F00A0327
:103A08007B617A69BB6813437B61FB683A699A6199
:103A1800FB687A691A6200BF1C37BD465DF8047BF3
:103A2800704780B487B000AFF860B9607A60FB680F
:103A38001B6A23F01002FB681A62FB689B697B61B2
:103A4800FB681B6A3B617B6923F470437B617B687D
:103A58001B037A6913437B613B6923F0A0033B6135
:103A6800BB681B013A6913433B61FB687A699A6139
:103A7800FB683A691A6200BF1C37BD465DF8047BD3
:103A8800704780B485B000AF786039607B689B6808
:103A9800FB60FB6823F07003FB603A68FB68134324
:103AA80043F00703FB607B68FA689A6000BF14372D
:103AB800BD465DF8047B704780B487B000AFF860FE
:103AC800B9607A603B60FB689B687B617B6923F423
:103AD8007F437B613B681A027B681A43BB681343C8
:103AE8007A6913437B61FB687A699A6000BF1C3767
:103AF800BD465DF8047B704780B485B000AF786040
:103B080039607B6893F83C30012B01D102235AE0DD
:103B18007B68012283F83C207B68022283F83D20E1
:103B28007B681B685B68FB607B681B689B68BB6085
:103B3800FB6823F07003FB603B681B68FA6813435B
:103B4800FB607B681B68FA685A607B681B68214ABF
:103B5800934222D07B681B68B3F1804F1DD07B68ED
:103B68001B681D4A934218D07B681B681B4A934206
:103B780013D07B681B681A4A93420ED07B681B6877
:103B8800184A934209D07B681B68174A934204D0AD
:103B98007B681B68154A93420CD1BB6823F08003ED
:103BA800BB603B685B68BA681343BB607B681B6893
:103BB800BA689A607B68012283F83D207B680022FE
:103BC80083F83C20002318461437BD465DF8047B73
:103BD800704700BF0000014000040040000800409A
:103BE800000C004000040140004001400018004063
:103BF80080B483B000AF786000BF0C37BD465DF875
:103C0800047B704780B483B000AF786000BF0C3786
:103C1800BD465DF8047B704780B582B000AF786020
:103C28007B68002B01D101233FE07B6893F8393092
:103C3800DBB2002B06D17B68002283F83820786835
:103C480001F042FF7B68242283F839207B681B68D7
:103C5800DA687B681B6822F40052DA60786800F042
:103C680097FB7B681B681A697B681B6822F4904283
:103C78001A617B681B685A697B681B6822F02A02F4
:103C88005A617B681B68DA687B681B6842F40052DB
:103C9800DA607B680022DA637B68202283F83920A7
:103CA8007B68202283F83A20002318460837BD464F
:103CB80080BD80B588B002AFF860B9603B6013463C
:103CC800FB8000237B61FB6893F83930DBB2202B43
:103CD80040F08380BB68002B02D0FB88002B01D109
:103CE80001237BE0FB6893F83830012B01D10223D4
:103CF80074E0FB68012283F83820FB680022DA634D
:103D0800FB68212283F83920FDF7FCF87861FB680D
:103D1800FA889A84FB68FA88DA84FB68002283F8B8
:103D2800382042E0FB68DB8C9BB2013B9AB2FB680F
:103D3800DA84FB689B68B3F5805F22D13B68009307
:103D48007B6900228021F86800F0B6F90346002B51
:103D580001D0032342E0BB683B613B691B881A46DC
:103D6800FB681B68C2F308025A60FB681B69002BDA
:103D780003D1BB680233BB6017E0BB680133BB608B
:103D880013E03B6800937B6900228021F86800F00B
:103D980093F90346002B01D003231FE0BB685A1C8C
:103DA800BA601A78FB681B685A60FB68DB8C9BB2A8
:103DB800002BB7D13B6800937B6900224021F8684B
:103DC80000F07AF90346002B01D0032306E0FB68D4
:103DD800202283F83920002300E0022318461837F0
:103DE800BD4680BD80B485B000AFF860B9601346A9
:103DF800FB80FB6893F83A30DBB2202B40D1BB68DC
:103E0800002B02D0FB88002B01D1012339E0FB688D
:103E180093F83830012B01D1022332E0FB680122EC
:103E280083F83820FB68BA689A62FB68FA889A8532
:103E3800FB68FA88DA85FB680022DA63FB682222CD
:103E480083F83A20FB68002283F83820FB681B6857
:103E5800DA68FB681B6842F48072DA60FB681B68EA
:103E68005A69FB681B6842F001025A61FB681B68CB
:103E7800DA68FB681B6842F02002DA60002300E081
:103E8800022318461437BD465DF8047B70470000CE
:103E980080B588B000AF78607B681B681B68FB61E1
:103EA8007B681B68DB68BB617B681B685B697B613F
:103EB80000233B610023FB60FB6903F00F033B61B8
:103EC8003B69002B0DD1FB6903F02003002B08D0C0
:103ED800BB6903F02003002B03D0786800F0D6F903
:103EE800D1E03B69002B00F0B0807B6903F001034F
:103EF800002B05D1BB6903F49073002B00F0A5805B
:103F0800FB6903F00103002B0AD0BB6903F480733B
:103F1800002B05D07B68DB6B43F001027B68DA631A
:103F2800FB6903F00403002B0AD07B6903F001034B
:103F3800002B05D07B68DB6B43F002027B68DA63F9
:103F4800FB6903F00203002B0AD07B6903F001032D
:103F5800002B05D07B68DB6B43F004027B68DA63D7
:103F6800FB6903F00803002B0FD0BB6903F02003A3
:103F7800002B04D17B6903F00103002B05D07B687B
:103F8800DB6B43F008027B68DA637B68DB6B002B32
:103F980078D0FB6903F02003002B07D0BB6903F03E
:103FA8002003002B02D0786800F070F97B681B684A
:103FB8005B6903F04003402B0CBF01230023DBB2F5
:103FC800FB607B68DB6B03F00803002B02D1FB6806
:103FD800002B31D0786800F0B9F87B681B685B6902
:103FE80003F04003402B23D17B681B685A697B6828
:103FF8001B6822F040025A617B685B6B002B13D070
:104008007B685B6B214A1A657B685B6B1846FDF71A
:1040180082FC0346002B16D07B685B6B1B6D7A68AD
:10402800526B104698470EE0786800F03BF80AE0BB
:10403800786800F037F806E0786800F033F87B68B5
:104048000022DA631EE000BF1CE0FB6903F0800376
:10405800002B08D0BB6903F08003002B03D07868DD
:1040680000F0A6F80FE0FB6903F04003002B0AD02C
:10407800BB6903F04003002B05D0786800F0EEF828
:1040880000BF00E000BF2037BD4680BD9141000859
:1040980080B483B000AF786000BF0C37BD465DF8D0
:1040A800047B704780B483B000AF786000BF0C37E2
:1040B800BD465DF8047B704780B584B000AFF860FA
:1040C800B9603B601346FB712CE0BB69B3F1FF3F5D
:1040D80028D0BB69002B07D0FCF714FF02463B68C9
:1040E800D31ABA699A421DD2FB681B68DA68FB6862
:1040F8001B6822F4D072DA60FB681B685A69FB6897
:104108001B6822F001025A61FB68202283F83920DB
:10411800FB68202283F83A20FB68002283F83820C5
:1041280003230FE0FB681B681A68BB681340BA6872
:104138009A420CBF01230023DBB21A46FB799A424C
:10414800C3D0002318461037BD4680BD80B483B065
:1041580000AF78607B681B68DA687B681B6822F4AC
:104168009072DA607B681B685A697B681B6822F06A
:1041780001025A617B68202283F83A2000BF0C377D
:10418800BD465DF8047B704780B584B000AF7860A9
:104198007B689B6BFB60FB680022DA85FB6800226A
:1041A800DA84F868FFF77EFF00BF1037BD4680BD90
:1041B80080B485B000AF78607B6893F83930DBB2A3
:1041C800212B44D17B689B68B3F5805F1AD17B684B
:1041D8001B6AFB60FB681B881A467B681B68C2F376
:1041E80008025A607B681B69002B05D17B681B6A33
:1041F8009A1C7B681A620EE07B681B6A5A1C7B68F3
:104208001A6208E07B681B6A591C7A6811621A787E
:104218007B681B685A607B68DB8C9BB2013B9BB256
:104228007A681946D184002B0FD17B681B68DA683D
:104238007B681B6822F08002DA607B681B68DA689A
:104248007B681B6842F04002DA60002300E002232A
:1042580018461437BD465DF8047B704780B582B0B8
:1042680000AF78607B681B68DA687B681B6822F09F
:104278004002DA607B68202283F839207868FFF7EB
:1042880007FF002318460837BD4680BD80B584B0B7
:1042980000AF78607B6893F83A30DBB2222B71D19B
:1042A8007B689B68B3F5805F23D17B689B6AFB6062
:1042B8007B681B69002B0ED17B681B685B689BB20F
:1042C800C3F308039AB2FB681A807B689B6A9A1C3E
:1042D8007B689A6229E07B681B685B689BB2DBB2EB
:1042E8009AB2FB681A807B689B6A5A1C7B689A6240
:1042F8001BE07B681B69002B0AD17B681B68586828
:104308007B689B6A591C7A689162C2B21A700CE089
:104318007B681B685B68DAB27B689B6A581C7968A3
:10432800886202F07F02D2B21A707B68DB8D9BB282
:10433800013B9BB27A681946D185002B20D17B6856
:104348001B68DA687B681B6822F02002DA607B68E9
:104358001B68DA687B681B6822F48072DA607B6805
:104368001B685A697B681B6822F001025A617B68E6
:10437800202283F83A20786801F038FA002302E016
:10438800002300E0022318461037BD4680BD000018
:104398002DE9F04F85B000AF78607B681B681B691A
:1043A80023F440517B68DA687B681B680A431A610A
:1043B8007B689A687B681B691A437B685B691A4348
:1043C8007B68DB691343FB607B681B68DB6823F44D
:1043D800164323F00C037A681268F9680B43D3601C
:1043E8007B681B685B6923F440717B689A697B680A
:1043F8001B680A435A617B68DB69B3F5004F40F0DC
:104408008B817B681B68C14A934205D07B681B6817
:10441800BF4A934240F0BD80FEF7EAFFB860BB6830
:104428001D464FF00006A846B14618EB080349EBB5
:1044380009049846A14618EB050849EB06094FF010
:1044480000014FF000024FEAC90242EA58724FEAEF
:10445800C8018846914618EB050049EB06017B68C0
:104468005B681D464FF000066B1946EB06041A46BA
:104478002346FCF761FB03460C461A46A54BA3FBF3
:1044880002235B094FEA0318BB681D464FF000067C
:10449800A946B24619EB09034AEB0A049946A24613
:1044A80019EB05094AEB060A4FF000014FF000022C
:1044B8004FEACA0242EA59724FEAC901894692464E
:1044C80019EB05004AEB06017B685B681D464FF057
:1044D80000066B1946EB06041A462346FCF72CFB2C
:1044E80003460C461A468B4BA3FB02135B09642157
:1044F80001FB03F3D31ADB003233864AA2FB032302
:104508005B095B0003F4F8739844BB681D464FF0E1
:104518000006A946B24619EB09034AEB0A04994674
:10452800A24619EB05094AEB060A4FF000014FF0C5
:1045380000024FEACA0242EA59724FEAC9018946A3
:10454800924619EB05004AEB06017B685B681D463D
:104558004FF000066B1946EB06041A462346FCF793
:10456800EBFA03460C461A466A4BA3FB02135B0997
:10457800642101FB03F3D31ADB003233654AA2FB43
:1045880003235B0903F007027B681B6842449A60B7
:104598006FE2FEF719FFB860BB681D464FF00006D2
:1045A800A846B14618EB080349EB09049846A1460A
:1045B80018EB050849EB06094FF000014FF000021F
:1045C8004FEAC90242EA58724FEAC8018846914642
:1045D80018EB050049EB06017B685B681D464FF048
:1045E80000066B1946EB06041A462346FCF7A4FAA4
:1045F80003460C461A46474BA3FB02235B094FEAC6
:104608000318BB681D464FF00006A946B24619EBD1
:1046180009034AEB0A049946A24619EB05094AEB35
:10462800060A4FF000014FF000024FEACA0242EAC0
:1046380059724FEAC9018946924619EB05004AEBBF
:1046480006017B685B681D464FF000066B1946EB58
:1046580006041A462346FCF76FFA03460C461A4628
:104668002C4BA3FB02135B09642101FB03F3D31A50
:10467800DB003233274AA2FB03235B095B0003F408
:10468800F8739844BB681D464FF00006A946B24629
:1046980019EB09034AEB0A049946A24619EB0509E6
:1046A8004AEB060A4FF000014FF000024FEACA0237
:1046B80042EA59724FEAC9018946924619EB050048
:1046C8004AEB06017B685B681D464FF000066B19D4
:1046D80046EB06041A462346FCF72EFA03460C4618
:1046E8001A460C4BA3FB02135B09642101FB03F37D
:1046F800D31ADB003233074AA2FB03235B0903F01A
:1047080007027B681B6842449A60B2E100100140CE
:10471800001401401F85EB517B681B68D74A934200
:1047280005D07B681B68D64A934240F0D180FEF7DB
:104738005FFEB860BB689A464FF0000BD046D9467A
:1047480018EB080349EB09049846A14618EB0A0838
:1047580049EB0B094FF000014FF000024FEAC90284
:1047680042EA58724FEAC801884691461AEB080592
:104778004BEB09067B685B6819464FF000024FF067
:1047880000034FF00004940044EA91748B001A4629
:10479800234628463146FCF7CFF903460C461A460D
:1047A800B84BA3FB02235B094FEA0318BB689B467F
:1047B8004FF0000CD946E24619EB09034AEB0A040C
:1047C8009946A24619EB0B094AEB0C0A4FF0000177
:1047D8004FF000024FEACA0242EA59724FEAC90191
:1047E800894692461BEB09054CEB0A067B685B6819
:1047F80019464FF000024FF000034FF000049400F8
:1048080044EA91748B001A46234628463146FCF741
:1048180093F903460C461A469A4BA3FB02135B090D
:10482800642101FB03F3D31A1B013233954AA2FB1F
:1048380003235B0903F0F0039844BB689B464FF0E1
:10484800000CD946E24619EB09034AEB0A049946DB
:10485800A24619EB0B094AEB0C0A4FF000014FF086
:1048680000024FEACA0242EA59724FEAC901894670
:1048780092461BEB09054CEB0A067B685B681946F8
:104888004FF000024FF000034FF00004940044EA98
:1048980091748B001A46234628463146FCF74CF99A
:1048A80003460C461A46774BA3FB02135B096421A7
:1048B80001FB03F3D31A1B013233724AA2FB032311
:1048C8005B0903F00F027B681B6842449A60D0E0E2
:1048D800FEF77AFDB860BB689A464FF0000BD046E9
:1048E800D94618EB080349EB09049846A14618EB8A
:1048F8000A0849EB0B094FF000014FF000024FEA9C
:10490800C90242EA58724FEAC801884691461AEB32
:1049180008054BEB09067B685B6819464FF00002F7
:104928004FF000034FF00004940044EA91748B00A8
:104938001A46234628463146FCF7FEF803460C463D
:104948001A46504BA3FB02235B094FEA0318BB68C6
:104958009B464FF0000CD946E24619EB09034AEB97
:104968000A049946A24619EB0B094AEB0C0A4FF0C8
:1049780000014FF000024FEACA0242EA59724FEAB8
:10498800C901894692461BEB09054CEB0A067B6870
:104998005B6819464FF000024FF000034FF0000427
:1049A800940044EA91748B001A46234628463146FF
:1049B800FCF7C2F803460C461A46324BA3FB021317
:1049C8005B09642101FB03F3D31A1B0132332D4A1F
:1049D800A2FB03235B0903F0F0039844BB689B46E2
:1049E8004FF0000CD946E24619EB09034AEB0A04DA
:1049F8009946A24619EB0B094AEB0C0A4FF0000145
:104A08004FF000024FEACA0242EA59724FEAC9015E
:104A1800894692461BEB09054CEB0A067B685B68E6
:104A280019464FF000024FF000034FF000049400C5
:104A380044EA91748B001A46234628463146FCF70F
:104A48007BF803460C461A460E4BA3FB02135B0980
:104A5800642101FB03F3D31A1B013233094AA2FB79
:104A680003235B0903F00F027B681B6842449A60CA
:104A7800FFE700BF1437BD46BDE8F08F00100140C6
:104A8800001401401F85EB5180B582B000AFFB1DBB
:104A9800184600F017FFFB1D184600F005F800BF88
:104AA8000837BD4680BD000090B58BB000AF786078
:104AB8004FF4FA63FB844FF47A53BB844FF000033E
:104AC8003B624FF00003FB614FF000034FF000041E
:104AD800C7E904344FF00003FB604FF00003BB60EC
:104AE8007B681B7807EE903AB8EE677ADFED326A9A
:104AF800C7EE267AB1EE047A67EE877AC7ED027AB6
:104B0800FA8C13469B00134407EE903AF8EEE76AD6
:104B1800D7ED027A86EEA77AFB8C07EE903AF8EE8C
:104B2800E77A77EE677AC7ED087ABB8C07EE903A9A
:104B3800B8EEE77AD7ED086AC6EE877AC7ED077A46
:104B4800F869FBF7A1FC16A3D3E90023FBF7F4FCF3
:104B580003460C46C7E904349FED131B97ED040B7D
:104B680001F086F854EC103B18462146FBF794FFF9
:104B78000346FB60F868FBF787FC0DA3D3E9002325
:104B8800FBF7DAFC03460C4618462146FBF784FF80
:104B98000346FB6000BF2C37BD4690BDAFF30080D5
:104BA8009A9999999999D93F4C37894160E5F6BF07
:104BB800FCA9F1D24D62503F0000804480B582B01C
:104BC80000AF0023FB800023BB804FF000033B6055
:104BD8003A1DBB1D1146184600F04EF9BB8841F23C
:104BE800883293420DD93A46391DBB1D184600F04C
:104BF800DDF8D7ED007AB0EE670A00F007F8FF237A
:104C080000E0002318460837BD4680BD80B586B051
:104C180000AF87ED010A4FF000037B614FF00003FE
:104C28003B614FF00003FB600023BB60514B5B68A6
:104C38000133504A53604F4B5B68012B09DD4D4BE4
:104C4800D3ED047A97ED017A77EE677AC7ED047AA7
:104C580002E04FF000033B61464A7B681361454B15
:104C68005B68022B09DD434BD3ED057A97ED047A97
:104C780077EE677AC7ED037A02E04FF00003FB6036
:104C88003C4A3B6953613B4B5A683A4BDB68D31A41
:104C9800BB60BB68002B0FDDBB6807EE903AF8EEEF
:104CA800E77A9FED357A27EE877ADFED346AC6EE2C
:104CB800877AC7ED057A02E04FF000037B61D7EDF4
:104CC800057A9FED2F7AF4EEC77AF1EE10FA02D545
:104CD800284B0022DA60D7ED047AF5EEC07AF1EEBF
:104CE80010FA33D5D7ED037AF5EEC07AF1EE10FA63
:104CF8002CDB204B9B68022B28DD1E4BDB68002B2E
:104D080020D0D7ED057A9FED1F7AF4EEC77AF1EE41
:104D180010FA17D8D7ED057AB6EE007A77EE877ACB
:104D2800C7ED057AD7ED057AFCEEE77AC7ED007A8C
:104D38003B68DBB21449184600F0ECF903461A4602
:104D48000C4B1A700B4B5B680A4AD360D7ED037A99
:104D5800F5EEC07AF1EE10FA05D5064B9B680133E3
:104D6800044A936002E0034B00229A6000BF1837A0
:104D7800BD4680BD980000200000003D0000704244
:104D88000000204200007043B000002080B483B0CF
:104D980000AF7860044B1A787B681A7000BF0C3734
:104DA800BD465DF8047B70479800002080B588B048
:104DB80000AFF860B9607A604FF00003FB614FF014
:104DC8000003BB614FF000037B614FF000033B61C0
:104DD800BB681B8807EE903AF8EE677A1F48B0EE7A
:104DE800670A00F0E3F887ED070A1D4897ED070A00
:104DF80000F0DCF887ED060A1A4897ED060A00F07D
:104E0800D5F887ED050A184B1B78002B10D1164BE7
:104E180001221A701548D7ED050A97ED050A00F02A
:104E28001EFA1348DFED130A9FED120A00F017FA75
:104E38000E4897ED050A00F02EFA87ED040A0C4893
:104E480097ED040A00F027FAF0EE407A7B68C3ED8C
:104E5800007A00BF2037BD4680BD00BFC0000020DB
:104E6800F0000020200100209801002050010020BF
:104E7800740100200000000080B584B000AF7860A5
:104E8800396007F10C03184600F0C2FC7B7B1B025B
:104E98001AB23B7B1BB213431BB29AB27B681A80CF
:104EA800FB7B1B021AB2BB7B1BB213431BB29AB229
:104EB8003B681A8000BF1037BD4680BD80B500AF83
:104EC80000F004F800F048FA00BF80BDB0B58AB021
:104ED80000AF164B07F114041D460FCD0FC42B6805
:104EE8002360134B3C461D460FCD0FC42B6823602F
:104EF8001049042000F02AF80F49082000F026F88D
:104F08000E49082000F022F80D4B00221A7007F114
:104F180014030C49184600F05BF93B460A49184649
:104F280000F056F900BF2837BD46B0BDF86E00083E
:104F38000C6F0008C0000020F000002020010020B5
:104F480098010020500100207401002090B484B022
:104F580000AF03463960FB710023FB733B68FA79A5
:104F680083F829203A684FF000034FF00004C2E9A3
:104F780008340023FB7309E0FB7B3A689B00134469
:104F88004FF000021A60FB7B0133FB73FB7B072B9E
:104F9800F2D93B68002283F828203B68002283F876
:104FA8002A2000BF1037BD4690BC7047B0B584B00A
:104FB80000AF87ED010A38604FF000034FF000049E
:104FC800C7E902343B6893F82A203B6893F82930F4
:104FD8009A4217D13B68D3E908453B6893F82830D3
:104FE8003A689B0013441B681846FBF74DFA0246C3
:104FF8000B4620462946FBF7E7F803460C463A6875
:10500800C2E908343B68D3E908457868FBF73CFAFD
:1050180002460B4620462946FBF7D8F803460C46BD
:105028003A68C2E908343B6893F828303A689B002C
:1050380013447A681A603B6893F828300133DAB26F
:105048003B6883F828203B6893F828203B6893F84E
:1050580029309A4203D33B68002283F828203B6812
:1050680093F82A203B6893F829309A4207D23B6884
:1050780093F82A300133DAB23B6883F82A203B6878
:1050880093F82A30002B12D03B68D3E908453B68D7
:1050980093F82A301846FBF7D5F902460B46204606
:1050A8002946FBF773FB03460C46C7E90234D7E9E8
:1050B8000201FBF7F1FC034607EE903AB0EE670AEF
:1050C8001037BD46B0BD80B485B000AF0346396027
:1050D800FB710023FB733B68FA79DA723B680022A4
:1050E8001A810023FB7306E0FB7B3A680021D15448
:1050F800FB7B0133FB73FB7B072BF5D93B68002255
:105108009A723B6800221A7300BF1437BD465DF8D7
:10511800047B704780B485B000AF03463960FB71EB
:105128000023FB813B681A7B3B68DB7A9A420ED1ED
:105138003B68B3F908309AB23B689B7A19463B68DA
:105148005B5C9BB2D31A9BB21AB23B681A813B686C
:10515800B3F908309AB2FB799BB213449BB21AB2E6
:105168003B681A813B689B7A19463B68FA795A541E
:105178003B689B7A0133DAB23B689A723B689A7A49
:105188003B68DB7A9A4202D33B6800229A723B68FA
:105198001A7B3B68DB7A9A4205D23B681B7B01335A
:1051A800DAB23B681A733B681B7B002B08D03B685C
:1051B800B3F908301A463B681B7B92FBF3F3FB817B
:1051C800FB89DBB218461437BD465DF8047B70478F
:1051D80080B483B000AF786039607B68002B14D14D
:1051E8003B684FF07E521A603B684FF000025A60ED
:1051F8003B684FF000029A603B684FF00002DA60AB
:105208003B684FF000021A6113E07B681A683B683C
:105218001A607B685A683B685A607B689A683B6882
:105228009A607B68DA683B68DA607B681A693B6871
:105238001A613B684FF000025A613B684FF0000268
:105248009A613B684FF00002DA613B684FF0000258
:105258001A6200BF0C37BD465DF8047B704780B406
:1052680085B000AF87ED030AC7ED020A78607B6856
:10527800FA685A617B68BA689A617B684FF00002E5
:10528800DA617B684FF000021A6200BF1437BD462E
:105298005DF8047B704780B487B000AF87ED010AE2
:1052A80038604FF000037B614FF000033B614FF023
:1052B8000003FB603B6893ED007AD7ED017A27EE97
:1052C800277A3B68D3ED016A3B68D3ED057A66EE31
:1052D800A77A37EE277A3B68D3ED026A3B68D3EDAD
:1052E800067A66EEA77A77EE277AC7ED057A3B68E5
:1052F80093ED037A3B68D3ED077A27EE277A3B686C
:10530800D3ED046A3B68D3ED087A66EEA77A77EEA8
:10531800277AC7ED047A97ED057AD7ED047A77EE08
:10532800277AC7ED037A3B685A693B689A613B68FC
:105338007A685A613B68DA693B681A623B68FA68BE
:10534800DA61FB6807EE903AB0EE670A1C37BD4693
:105358005DF8047B7047000080B500AF0C4B00225D
:105368001A700B4B00225A60094B00229A60084BB6
:105378000022DA60064B4FF000021A61044B4FF02E
:1053880000025A6103490420FFF79DFE00BF80BD5B
:1053980098000020B000002080B584B002AF4123FF
:1053A8003B7186237B713A1D0A2300930223B621A1
:1053B8001048FCF7A5FD0346002B17D142233B718B
:1053C8000D237B713A1D0A2300930223B621094855
:1053D800FCF796FD43233B7101237B713A1D0A2399
:1053E80000930223B6210348FCF78AFD00BF083763
:1053F800BD4680BDA001002080B500AFFBF71CFDB5
:1054080000F014F800F076F900F07AF800F0CCF823
:1054180000F046F900F0F6F8FFF750FDFFF7BCFF83
:105428000148FEF724F8FEE7F401002080B594B0A7
:1054380000AF07F1200330220021184601F042FD99
:1054480007F10C0300221A605A609A60DA601A6148
:105458000023BB60284B1B6C274A43F0805313641E
:10546800254B1B6C03F08053BB60BB6800237B603B
:10547800224B1B68214A43F4804313601F4B1B686F
:1054880003F480437B607B6802233B620123FB6259
:1054980010233B630223BB630023FB6308233B64A5
:1054A80040237B640223BB640423FB6407F12003CD
:1054B8001846FDF775FB0346002B01D000F020FAD3
:1054C8000F23FB6002233B6190237B614FF4A053C1
:1054D800BB614FF48053FB6107F10C0300211846B0
:1054E800FDF7CEFD0346002B01D000F009FA00BFFE
:1054F8005037BD4680BD00BF0038024000700040F4
:1055080080B584B000AF3B4600221A605A609A60AA
:10551800DA60224B224A1A60204B4FF440325A601C
:105528001E4B4FF000729A601C4B00221A611B4BF5
:1055380000221A76194B002283F82020174B0022EC
:10554800DA62164B174A9A62144B0022DA60134B40
:105558000122DA61114B002283F830200F4B01221F
:105568005A610E48FBF7DAFC0346002B01D000F025
:10557800C7F90F233B6001237B600023BB603B46D8
:1055880019460648FBF798FE0346002B01D000F0A9
:10559800B7F900BF1037BD4680BD00BF34020020F8
:1055A800002001400100000F80B500AF124B134AE4
:1055B8001A60114B124A5A600F4B00229A600E4B28
:1055C8000022DA600C4B4FF480421A610A4B002229
:1055D8005A61094B00229A61074B0022DA61064B97
:1055E80000221A620448FCF753FB0346002B01D043
:1055F80000F086F900BF80BDA001002000540040E3
:10560800A086010080B586B000AF07F1080300222C
:105618001A605A609A60DA603B4600221A605A6043
:105628001D4B1E4A1A601C4B4FF47A525A601A4B93
:1056380000229A60184B2022DA60174B00221A6168
:10564800154B00229A611448FDF7E6FE0346002B2D
:1056580001D000F055F94FF48053BB6007F10803FF
:1056680019460D48FEF72FF80346002B01D000F02D
:1056780047F900233B6000237B603B4619460648F8
:10568800FEF73AFA0346002B01D000F039F900BFC3
:105698001837BD4680BD00BFF4010020000400405B
:1056A80080B500AF114B124A1A60104B4FF4E1322B
:1056B8005A600E4B00229A600C4B0022DA600B4BAA
:1056C80000221A61094B0C225A61084B00229A6188
:1056D800064B0022DA610548FEF79EFA0346002BC6
:1056E80001D000F00DF900BF80BD00BF7C02002092
:1056F8000044004080B485B000AF0023FB601E4B1F
:105708001B6B1D4A43F0040313631B4B1B6B03F015
:105718000403FB60FB680023BB60174B1B6B164A36
:1057280043F080031363144B1B6B03F08003BB60CF
:10573800BB6800237B60104B1B6B0F4A43F00103CF
:1057480013630D4B1B6B03F001037B607B68002325
:105758003B60094B1B6B084A43F002031363064B7B
:105768001B6B03F002033B603B6800BF1437BD4668
:105778005DF8047B704700BF0038024080B584B0F4
:1057880000AF78600023BB730023FB73FFF716FAA2
:105798000346FB73124B1B780133DAB2104B1A70B5
:1057A8000F4B1B781F2B13D90D4B00221A70FB7B54
:1057B800FF2B0BD107F10E031846FFF7E7FA07F1A5
:1057C8000E01642301220748FEF773FAFFF75CF91C
:1057D8000548FDF74CFE00BF1037BD4680BD00BF31
:1057E8009A0100207C020020F401002080B582B0DC
:1057F80000AF7860012204490448FEF7F3FA00BFBD
:105808000837BD4680BD00BF990100207C020020FA
:1058180080B586B002AF78605423FB7307F10F029E
:105828000A2300930123B6212548FCF769FB0A23C4
:10583800009301237A68B6212148FCF75FFC5523C1
:10584800FB7307F10F020A2300930123B6211C48BA
:10585800FCF756FB7B685A1C0A2300930123B621E8
:105868001748FCF74BFC5623FB7307F10F020A237A
:1058780000930123B6211248FCF742FB7B689A1C6F
:105888000A2300930123B6210D48FCF737FC572360
:10589800FB7307F10F020A2300930123B62108487E
:1058A800FCF72EFB7B68DA1C0A2300930123B62140
:1058B8000348FCF723FC00BF1037BD4680BD00BF7E
:1058C800A001002080B582B000AF78600B48FBF7DC
:1058D80069FB00210948FBF75EFC0346002B06D054
:1058E8000648FBF7DCFC0346DAB27B681A7003480B
:1058F800FBF71EFC00BF0837BD4680BD3402002000
:1059080080B400AF00BFBD465DF8047B704700005F
:1059180080B483B000AF00237B60104B5B6C0F4AF0
:1059280043F4804353640D4B5B6C03F480437B600A
:105938007B6800233B60094B1B6C084A43F080538B
:105948001364064B1B6C03F080533B603B6800BF3D
:105958000C37BD465DF8047B704700BF0038024035
:1059680080B58AB000AF786007F1140300221A608E
:105978005A609A60DA601A617B681B68174A93421A
:1059880027D100233B61164B5B6C154A43F48073A7
:105998005364134B5B6C03F480733B613B690023D6
:1059A800FB600F4B1B6B0E4A43F0040313630C4B55
:1059B8001B6B03F00403FB60FB6820237B6103235C
:1059C800BB610023FB6107F1140319460548FBF787
:1059D800C5FF00BF2837BD4680BD00BF002001407D
:1059E800003802400008024080B58AB000AF7860F5
:1059F80007F1140300221A605A609A60DA601A618B
:105A08007B681B68194A93422CD100233B61184BD1
:105A18001B6B174A43F002031363154B1B6B03F010
:105A280002033B613B694FF4C0737B611223BB6186
:105A38000123FB6103233B6204237B6207F1140308
:105A480019460C48FBF78AFF0023FB60084B1B6CC8
:105A5800074A43F400131364054B1B6C03F400134B
:105A6800FB60FB6800BF2837BD4680BD005400407E
:105A7800003802400004024080B584B000AF78606E
:105A88007B681B680E4A934215D10023FB600D4BBF
:105A98001B6C0C4A43F0020313640A4B1B6C03F0A3
:105AA8000203FB60FB68002200211D20FBF7FDFEBE
:105AB8001D20FBF716FF00BF1037BD4680BD00BF95
:105AC800000400400038024080B58AB000AF78601A
